{
  "contractName": "ContractNameService",
  "abi": [
    {
      "constant": true,
      "inputs": [
        {
          "name": "_sender",
          "type": "address"
        },
        {
          "name": "_name",
          "type": "bytes32"
        }
      ],
      "name": "isVersionContract",
      "outputs": [
        {
          "name": "",
          "type": "bool"
        }
      ],
      "payable": false,
      "stateMutability": "view",
      "type": "function"
    },
    {
      "constant": true,
      "inputs": [],
      "name": "provider",
      "outputs": [
        {
          "name": "",
          "type": "address"
        }
      ],
      "payable": false,
      "stateMutability": "view",
      "type": "function"
    },
    {
      "constant": true,
      "inputs": [
        {
          "name": "",
          "type": "bytes32"
        },
        {
          "name": "",
          "type": "uint256"
        }
      ],
      "name": "contracts",
      "outputs": [
        {
          "name": "main",
          "type": "address"
        },
        {
          "name": "logic",
          "type": "address"
        }
      ],
      "payable": false,
      "stateMutability": "view",
      "type": "function"
    },
    {
      "constant": true,
      "inputs": [
        {
          "name": "_sender",
          "type": "address"
        },
        {
          "name": "_name",
          "type": "bytes32"
        }
      ],
      "name": "isVersionLogic",
      "outputs": [
        {
          "name": "",
          "type": "bool"
        }
      ],
      "payable": false,
      "stateMutability": "view",
      "type": "function"
    },
    {
      "constant": true,
      "inputs": [
        {
          "name": "_name",
          "type": "bytes32"
        },
        {
          "name": "_version",
          "type": "uint256"
        }
      ],
      "name": "getContract",
      "outputs": [
        {
          "name": "",
          "type": "address"
        }
      ],
      "payable": false,
      "stateMutability": "view",
      "type": "function"
    },
    {
      "constant": true,
      "inputs": [
        {
          "name": "_name",
          "type": "bytes32"
        }
      ],
      "name": "getLatestContract",
      "outputs": [
        {
          "name": "",
          "type": "address"
        }
      ],
      "payable": false,
      "stateMutability": "view",
      "type": "function"
    },
    {
      "constant": false,
      "inputs": [
        {
          "name": "_name",
          "type": "bytes32"
        },
        {
          "name": "_version",
          "type": "uint256"
        },
        {
          "name": "_main",
          "type": "address"
        },
        {
          "name": "_logic",
          "type": "address"
        }
      ],
      "name": "setContract",
      "outputs": [],
      "payable": false,
      "stateMutability": "nonpayable",
      "type": "function"
    },
    {
      "constant": true,
      "inputs": [
        {
          "name": "_name",
          "type": "bytes32"
        }
      ],
      "name": "getLatestVersion",
      "outputs": [
        {
          "name": "",
          "type": "uint256"
        }
      ],
      "payable": false,
      "stateMutability": "view",
      "type": "function"
    },
    {
      "anonymous": false,
      "inputs": [
        {
          "indexed": true,
          "name": "name",
          "type": "bytes32"
        },
        {
          "indexed": false,
          "name": "version",
          "type": "uint256"
        },
        {
          "indexed": true,
          "name": "main",
          "type": "address"
        },
        {
          "indexed": true,
          "name": "logic",
          "type": "address"
        }
      ],
      "name": "SetContract",
      "type": "event"
    }
  ],
  "bytecode": "0x6060604052336000806101000a81548173ffffffffffffffffffffffffffffffffffffffff021916908373ffffffffffffffffffffffffffffffffffffffff160217905550341561004f57600080fd5b610b818061005e6000396000f30060606040526004361061008e576000357c0100000000000000000000000000000000000000000000000000000000900463ffffffff168063062af37d14610093578063085d4883146100f15780630924ea401461014657806320cad613146101e957806396f27b2914610247578063aea8d47c146102b7578063d550668d1461031e578063dd3b014c1461038c575b600080fd5b341561009e57600080fd5b6100d7600480803573ffffffffffffffffffffffffffffffffffffffff16906020019091908035600019169060200190919050506103c7565b604051808215151515815260200191505060405180910390f35b34156100fc57600080fd5b6101046104cc565b604051808273ffffffffffffffffffffffffffffffffffffffff1673ffffffffffffffffffffffffffffffffffffffff16815260200191505060405180910390f35b341561015157600080fd5b6101746004808035600019169060200190919080359060200190919050506104f1565b604051808373ffffffffffffffffffffffffffffffffffffffff1673ffffffffffffffffffffffffffffffffffffffff1681526020018273ffffffffffffffffffffffffffffffffffffffff1673ffffffffffffffffffffffffffffffffffffffff1681526020019250505060405180910390f35b34156101f457600080fd5b61022d600480803573ffffffffffffffffffffffffffffffffffffffff1690602001909190803560001916906020019091905050610571565b604051808215151515815260200191505060405180910390f35b341561025257600080fd5b610275600480803560001916906020019091908035906020019091905050610676565b604051808273ffffffffffffffffffffffffffffffffffffffff1673ffffffffffffffffffffffffffffffffffffffff16815260200191505060405180910390f35b34156102c257600080fd5b6102dc600480803560001916906020019091905050610701565b604051808273ffffffffffffffffffffffffffffffffffffffff1673ffffffffffffffffffffffffffffffffffffffff16815260200191505060405180910390f35b341561032957600080fd5b61038a60048080356000191690602001909190803590602001909190803573ffffffffffffffffffffffffffffffffffffffff1690602001909190803573ffffffffffffffffffffffffffffffffffffffff1690602001909190505061071c565b005b341561039757600080fd5b6103b1600480803560001916906020019091905050610a48565b6040518082815260200191505060405180910390f35b60008060008473ffffffffffffffffffffffffffffffffffffffff1614156103f257600091506104c5565b600090505b600160008460001916600019168152602001908152602001600020805490508110156104c0578373ffffffffffffffffffffffffffffffffffffffff166001600085600019166000191681526020019081526020016000208281548110151561045c57fe5b906000526020600020906002020160000160009054906101000a900473ffffffffffffffffffffffffffffffffffffffff1673ffffffffffffffffffffffffffffffffffffffff1614156104b357600191506104c5565b80806001019150506103f7565b600091505b5092915050565b6000809054906101000a900473ffffffffffffffffffffffffffffffffffffffff1681565b60016020528160005260406000208181548110151561050c57fe5b9060005260206000209060020201600091509150508060000160009054906101000a900473ffffffffffffffffffffffffffffffffffffffff16908060010160009054906101000a900473ffffffffffffffffffffffffffffffffffffffff16905082565b60008060008473ffffffffffffffffffffffffffffffffffffffff16141561059c576000915061066f565b600090505b6001600084600019166000191681526020019081526020016000208054905081101561066a578373ffffffffffffffffffffffffffffffffffffffff166001600085600019166000191681526020019081526020016000208281548110151561060657fe5b906000526020600020906002020160010160009054906101000a900473ffffffffffffffffffffffffffffffffffffffff1673ffffffffffffffffffffffffffffffffffffffff16141561065d576001915061066f565b80806001019150506105a1565b600091505b5092915050565b60008082148061068d57508161068b84610a48565b105b1561069b57600090506106fb565b600160008460001916600019168152602001908152602001600020600183038154811015156106c657fe5b906000526020600020906002020160000160009054906101000a900473ffffffffffffffffffffffffffffffffffffffff1690505b92915050565b60006107158261071084610a48565b610676565b9050919050565b610724610a70565b6000809054906101000a900473ffffffffffffffffffffffffffffffffffffffff1673ffffffffffffffffffffffffffffffffffffffff163373ffffffffffffffffffffffffffffffffffffffff1614151561077f57600080fd5b60008373ffffffffffffffffffffffffffffffffffffffff1614806107ba575060008273ffffffffffffffffffffffffffffffffffffffff16145b156107c457600080fd5b8360016107d087610a48565b0110156107dc57600080fd5b60408051908101604052808473ffffffffffffffffffffffffffffffffffffffff1681526020018373ffffffffffffffffffffffffffffffffffffffff16815250905083600161082b87610a48565b01141561090b57600160008660001916600019168152602001908152602001600020805480600101828161085f9190610ab6565b9160005260206000209060020201600083909190915060008201518160000160006101000a81548173ffffffffffffffffffffffffffffffffffffffff021916908373ffffffffffffffffffffffffffffffffffffffff16021790555060208201518160010160006101000a81548173ffffffffffffffffffffffffffffffffffffffff021916908373ffffffffffffffffffffffffffffffffffffffff1602179055505050506109d7565b806001600087600019166000191681526020019081526020016000206001860381548110151561093757fe5b906000526020600020906002020160008201518160000160006101000a81548173ffffffffffffffffffffffffffffffffffffffff021916908373ffffffffffffffffffffffffffffffffffffffff16021790555060208201518160010160006101000a81548173ffffffffffffffffffffffffffffffffffffffff021916908373ffffffffffffffffffffffffffffffffffffffff1602179055509050505b8173ffffffffffffffffffffffffffffffffffffffff168373ffffffffffffffffffffffffffffffffffffffff1686600019167f9b388b93e08e1ed54e547dcdc669694ec0f8a0621e50fe1f0ed1d50708b6a660876040518082815260200191505060405180910390a45050505050565b6000600160008360001916600019168152602001908152602001600020805490509050919050565b6040805190810160405280600073ffffffffffffffffffffffffffffffffffffffff168152602001600073ffffffffffffffffffffffffffffffffffffffff1681525090565b815481835581811511610ae357600202816002028360005260206000209182019101610ae29190610ae8565b5b505050565b610b5291905b80821115610b4e57600080820160006101000a81549073ffffffffffffffffffffffffffffffffffffffff02191690556001820160006101000a81549073ffffffffffffffffffffffffffffffffffffffff021916905550600201610aee565b5090565b905600a165627a7a7230582047438641d2a10a3ceb2e9014a7d5a15fb01ca83941b01238770526c2f3282bfe0029",
  "source": "pragma solidity ^0.4.2;\r\n\r\ncontract ContractNameService {\r\n    address public provider = msg.sender;\r\n    mapping (bytes32 => ContractSet[]) public contracts;\r\n\r\n    struct ContractSet {\r\n        address main;\r\n        address logic;\r\n    }\r\n\r\n    event SetContract(bytes32 indexed name, uint version, address indexed main, address indexed logic);\r\n\r\n    modifier onlyByProvider() {\r\n        if (msg.sender != provider) throw;\r\n        _;\r\n    }\r\n\r\n    function setContract(bytes32 _name, uint _version, address _main, address _logic) onlyByProvider {\r\n        if (_main == 0 || _logic == 0) throw;\r\n        if (getLatestVersion(_name) + 1 < _version) throw;\r\n\r\n        ContractSet memory set = ContractSet(_main, _logic);\r\n        if (getLatestVersion(_name) + 1 == _version) {\r\n            contracts[_name].push(set);\r\n        } else {\r\n            contracts[_name][_version - 1] = set;\r\n        }\r\n        SetContract(_name, _version, _main, _logic);\r\n    }\r\n\r\n    function isVersionContract(address _sender, bytes32 _name) constant returns (bool) {\r\n        if (_sender == 0) return false;\r\n        for (uint i = 0; i < contracts[_name].length; i++) {\r\n            if (contracts[_name][i].main == _sender) return true;\r\n        }\r\n        return false;\r\n    }\r\n\r\n    function isVersionLogic(address _sender, bytes32 _name) constant returns (bool) {\r\n        if (_sender == 0) return false;\r\n        for (uint i = 0; i < contracts[_name].length; i++) {\r\n            if (contracts[_name][i].logic == _sender) return true;\r\n        }\r\n        return false;\r\n    }\r\n\r\n    function getContract(bytes32 _name, uint _version) constant returns (address) {\r\n        if (_version == 0 || getLatestVersion(_name) < _version) return 0;\r\n        return contracts[_name][_version - 1].main;\r\n    }\r\n\r\n    function getLatestVersion(bytes32 _name) constant returns (uint) {\r\n        return contracts[_name].length;\r\n    }\r\n\r\n    function getLatestContract(bytes32 _name) constant returns (address) {\r\n        return getContract(_name, getLatestVersion(_name));\r\n    }\r\n}",
  "sourcePath": "/var/my_folder/myFirstContract/provider/contracts/ContractNameService.sol",
  "compiler": {
    "name": "solc",
    "version": "0.4.18+commit.9cf6e910.Emscripten.clang"
  },
  "schemaVersion": "1.0.1",
  "updatedAt": "2017-12-18T07:28:31.690Z"
}