{
  "contractName": "CourseTro",
  "abi": [
    {
      "constant": true,
      "inputs": [
        {
          "name": "_address",
          "type": "address"
        }
      ],
      "name": "getInstructor",
      "outputs": [
        {
          "name": "",
          "type": "string"
        },
        {
          "name": "",
          "type": "string"
        },
        {
          "name": "",
          "type": "address"
        }
      ],
      "payable": false,
      "stateMutability": "view",
      "type": "function"
    },
    {
      "constant": true,
      "inputs": [],
      "name": "getInstructors",
      "outputs": [
        {
          "name": "",
          "type": "address[]"
        }
      ],
      "payable": false,
      "stateMutability": "view",
      "type": "function"
    },
    {
      "constant": true,
      "inputs": [
        {
          "name": "",
          "type": "uint256"
        }
      ],
      "name": "instructorAccts",
      "outputs": [
        {
          "name": "",
          "type": "address"
        }
      ],
      "payable": false,
      "stateMutability": "view",
      "type": "function"
    },
    {
      "constant": true,
      "inputs": [],
      "name": "countInstructors",
      "outputs": [
        {
          "name": "",
          "type": "uint256"
        }
      ],
      "payable": false,
      "stateMutability": "view",
      "type": "function"
    },
    {
      "constant": false,
      "inputs": [
        {
          "name": "_address",
          "type": "address"
        },
        {
          "name": "_bookName",
          "type": "string"
        },
        {
          "name": "_author",
          "type": "string"
        }
      ],
      "name": "setInstructor",
      "outputs": [],
      "payable": false,
      "stateMutability": "nonpayable",
      "type": "function"
    },
    {
      "anonymous": false,
      "inputs": [
        {
          "indexed": false,
          "name": "_bookName",
          "type": "string"
        },
        {
          "indexed": false,
          "name": "_author",
          "type": "string"
        }
      ],
      "name": "InstructorInfo",
      "type": "event"
    }
  ],
  "bytecode": "0x6060604052341561000f57600080fd5b61093f8061001e6000396000f30060606040526004361061006d576000357c0100000000000000000000000000000000000000000000000000000000900463ffffffff1680630429e372146100725780635eff7dae146101c35780638eb5234c1461022d578063ca8ab93314610290578063e3093a96146102b9575b600080fd5b341561007d57600080fd5b6100a9600480803573ffffffffffffffffffffffffffffffffffffffff16906020019091905050610378565b6040518080602001806020018473ffffffffffffffffffffffffffffffffffffffff1673ffffffffffffffffffffffffffffffffffffffff168152602001838103835286818151815260200191508051906020019080838360005b8381101561011f578082015181840152602081019050610104565b50505050905090810190601f16801561014c5780820380516001836020036101000a031916815260200191505b50838103825285818151815260200191508051906020019080838360005b8381101561018557808201518184015260208101905061016a565b50505050905090810190601f1680156101b25780820380516001836020036101000a031916815260200191505b509550505050505060405180910390f35b34156101ce57600080fd5b6101d6610552565b6040518080602001828103825283818151815260200191508051906020019060200280838360005b838110156102195780820151818401526020810190506101fe565b505050509050019250505060405180910390f35b341561023857600080fd5b61024e60048080359060200190919050506105e6565b604051808273ffffffffffffffffffffffffffffffffffffffff1673ffffffffffffffffffffffffffffffffffffffff16815260200191505060405180910390f35b341561029b57600080fd5b6102a3610625565b6040518082815260200191505060405180910390f35b34156102c457600080fd5b610376600480803573ffffffffffffffffffffffffffffffffffffffff1690602001909190803590602001908201803590602001908080601f0160208091040260200160405190810160405280939291908181526020018383808284378201915050505050509190803590602001908201803590602001908080601f01602080910402602001604051908101604052809392919081815260200183838082843782019150505050505091905050610632565b005b61038061081a565b61038861081a565b60008060008573ffffffffffffffffffffffffffffffffffffffff1673ffffffffffffffffffffffffffffffffffffffff1681526020019081526020016000206000016000808673ffffffffffffffffffffffffffffffffffffffff1673ffffffffffffffffffffffffffffffffffffffff16815260200190815260200160002060010185828054600181600116156101000203166002900480601f0160208091040260200160405190810160405280929190818152602001828054600181600116156101000203166002900480156104a25780601f10610477576101008083540402835291602001916104a2565b820191906000526020600020905b81548152906001019060200180831161048557829003601f168201915b50505050509250818054600181600116156101000203166002900480601f01602080910402602001604051908101604052809291908181526020018280546001816001161561010002031660029004801561053e5780601f106105135761010080835404028352916020019161053e565b820191906000526020600020905b81548152906001019060200180831161052157829003601f168201915b505050505091509250925092509193909250565b61055a61082e565b60018054806020026020016040519081016040528092919081815260200182805480156105dc57602002820191906000526020600020905b8160009054906101000a900473ffffffffffffffffffffffffffffffffffffffff1673ffffffffffffffffffffffffffffffffffffffff1681526020019060010190808311610592575b5050505050905090565b6001818154811015156105f557fe5b90600052602060002090016000915054906101000a900473ffffffffffffffffffffffffffffffffffffffff1681565b6000600180549050905090565b60008060008573ffffffffffffffffffffffffffffffffffffffff1673ffffffffffffffffffffffffffffffffffffffff16815260200190815260200160002090508281600001908051906020019061068c929190610842565b50818160010190805190602001906106a5929190610842565b5060018080548060010182816106bb91906108c2565b9160005260206000209001600087909190916101000a81548173ffffffffffffffffffffffffffffffffffffffff021916908373ffffffffffffffffffffffffffffffffffffffff16021790555050507f625b42848ddcf480f80799084dcaf28c86427a69802edc04ea54d81e16f0e8c28383604051808060200180602001838103835285818151815260200191508051906020019080838360005b83811015610772578082015181840152602081019050610757565b50505050905090810190601f16801561079f5780820380516001836020036101000a031916815260200191505b50838103825284818151815260200191508051906020019080838360005b838110156107d85780820151818401526020810190506107bd565b50505050905090810190601f1680156108055780820380516001836020036101000a031916815260200191505b5094505050505060405180910390a150505050565b602060405190810160405280600081525090565b602060405190810160405280600081525090565b828054600181600116156101000203166002900490600052602060002090601f016020900481019282601f1061088357805160ff19168380011785556108b1565b828001600101855582156108b1579182015b828111156108b0578251825591602001919060010190610895565b5b5090506108be91906108ee565b5090565b8154818355818115116108e9578183600052602060002091820191016108e891906108ee565b5b505050565b61091091905b8082111561090c5760008160009055506001016108f4565b5090565b905600a165627a7a72305820ebe5e8d9286a887eb3b3eb7815254dfdc59923dc3223eec1490dab9938930be60029",
  "source": "pragma solidity ^0.4.0;\r\n\r\ncontract CourseTro {\r\n    \r\n    \r\n    struct Instructor {\r\n        string bookName;\r\n        string author;\r\n    }\r\n    \r\n    mapping (address => Instructor) instructors;\r\n    address[] public instructorAccts;\r\n    \r\n    event InstructorInfo (string _bookName, string _author);\r\n    \r\n    function setInstructor(address _address, string _bookName, string _author) public {\r\n        var instructor = instructors[_address];\r\n        \r\n        instructor.bookName = _bookName;\r\n        instructor.author = _author;\r\n        \r\n        instructorAccts.push(_address) -1;\r\n        InstructorInfo(_bookName, _author);\r\n        \r\n    }\r\n    \r\n    function getInstructor (address _address) view public returns (string, string, address) {\r\n        return (instructors[_address].bookName, instructors[_address].author, _address);\r\n    }\r\n    \r\n    function getInstructors() view public returns (address[]) {\r\n        return instructorAccts;\r\n    }\r\n    \r\n    function countInstructors() view public returns (uint) {\r\n        return instructorAccts.length;\r\n    }\r\n}\r\n",
  "sourcePath": "/var/my_folder/myFirstContract/provider/contracts/CourseTro.sol",
  "compiler": {
    "name": "solc",
    "version": "0.4.18+commit.9cf6e910.Emscripten.clang"
  },
  "schemaVersion": "1.0.1",
  "updatedAt": "2017-12-18T07:28:31.635Z"
}